:100000000C942A000C9434000C9434000C943400AA
:100010000C9434000C9434000C9434000C94340090
:100020000C9434000C9434000C9434000C94340080
:100030000C9434000C9434000C9434000C94340070
:100040000C9434000C9434000C9434000C94340060
:100050000C94340011241FBECFE5D8E0DEBFCDBF25
:100060000E9436000C9453000C940000DF93CF9351
:10007000CDB7DEB7EAE3F0E08FEF8083E4E3F0E0B2
:100080001082E5E3F0E08FEF8083E3E3F0E080812E
:1000900088232CF0EBE3F0E08FEF8083F6CFEBE3E7
:0A00A000F0E01082F2CFF894FFCFD9
:00000001FF
